:020000040000fa
:080000000002040000000000f2
:020000040000fa
:04000800d40200001e
:020000040000fa
:04000c00d40200001a
:020000040000fa
:04001000d402000016
:020000040000fa
:04001400d402000012
:020000040000fa
:04001800d40200000e
:020000040000fa
:04001c00d40200000a
:020000040000fa
:04002000d402000006
:020000040000fa
:04002400d402000002
:020000040000fa
:04002800d4020000fe
:020000040000fa
:04002c00d4020000fa
:020000040000fa
:04003000d4020000f6
:020000040000fa
:040034005222000054
:020000040000fa
:04003800d4020000ee
:020000040000fa
:04003c00d4020000ea
:020000040000fa
:04004000d4020000e6
:020000040000fa
:04004400d4020000e2
:020000040000fa
:04004800d4020000de
:020000040000fa
:04004c00d4020000da
:020000040000fa
:04005000d4020000d6
:020000040000fa
:04005400d4020000d2
:020000040000fa
:04005800d4020000ce
:020000040000fa
:04005c00d4020000ca
:020000040000fa
:04006000d4020000c6
:020000040000fa
:04006400d4020000c2
:020000040000fa
:04006800d4020000be
:020000040000fa
:04006c00d4020000ba
:020000040000fa
:04007000d4020000b6
:020000040000fa
:04007400d4020000b2
:020000040000fa
:04007800d4020000ae
:020000040000fa
:04007c00d4020000aa
:020000040000fa
:04008000d4020000a6
:020000040000fa
:04008400d4020000a2
:020000040000fa
:04008800d40200009e
:020000040000fa
:04008c00d40200009a
:020000040000fa
:04009000d402000096
:020000040000fa
:04009400d402000092
:020000040000fa
:04009800d40200008e
:020000040000fa
:04009c00c822000076
:020000040000fa
:0400a000d402000086
:020000040000fa
:0400a400d402000082
:020000040000fa
:0400a800d40200007e
:020000040000fa
:0400ac00d40200007a
:020000040000fa
:0400b000d402000076
:020000040000fa
:0400b400d402000072
:020000040000fa
:0400b800d40200006e
:020000040000fa
:0400bc00d40200006a
:020000040000fa
:0400c000d402000066
:020000040000fa
:0400c400d402000062
:020000040000fa
:0400c800d40200005e
:020000040000fa
:0400cc00d40200005a
:020000040000fa
:0400d000d402000056
:020000040000fa
:0400d400d402000052
:020000040000fa
:0400d800d40200004e
:020000040000fa
:0400dc00d40200004a
:020000040000fa
:0400e000d402000046
:020000040000fa
:0400e400d402000042
:020000040000fa
:0400e800d40200003e
:020000040000fa
:0400ec00d40200003a
:020000040000fa
:0400f000d402000036
:020000040000fa
:0400f400d402000032
:020000040000fa
:0400f800d40200002e
:020000040000fa
:0400fc00d40200002a
:020000040000fa
:04010000d402000025
:020000040000fa
:04010400d402000021
:020000040000fa
:04010800d40200001d
:020000040000fa
:04010c00d402000019
:020000040000fa
:04011000d402000015
:020000040000fa
:04011400d402000011
:020000040000fa
:04011800d40200000d
:020000040000fa
:04011c00d402000009
:020000040000fa
:04012000d402000005
:020000040000fa
:04012400d402000001
:020000040000fa
:04012800d4020000fd
:020000040000fa
:04012c00d4020000f9
:020000040000fa
:04013000d4020000f5
:020000040000fa
:04013400d4020000f1
:020000040000fa
:04013800d4020000ed
:020000040000fa
:04013c00d4020000e9
:020000040000fa
:04014000d4020000e5
:020000040000fa
:04014400d4020000e1
:020000040000fa
:04014800d4020000dd
:020000040000fa
:04014c00d4020000d9
:020000040000fa
:04015000d4020000d5
:020000040000fa
:04015400d4020000d1
:020000040000fa
:04015800d4020000cd
:020000040000fa
:04015c00d4020000c9
:020000040000fa
:04016000d4020000c5
:020000040000fa
:04016400d4020000c1
:020000040000fa
:04020800d40200001c
:020000040000fa
:04020c00d402000018
:020000040000fa
:04021000d402000014
:020000040000fa
:04021400d402000010
:020000040000fa
:04021800d40200000c
:020000040000fa
:04021c00d402000008
:020000040000fa
:04022000d402000004
:020000040000fa
:04022400d402000000
:020000040000fa
:04022800d4020000fc
:020000040000fa
:04022c00d4020000f8
:020000040000fa
:04023000d4020000f4
:020000040000fa
:040234005222000052
:020000040000fa
:04023800d4020000ec
:020000040000fa
:04023c00d4020000e8
:020000040000fa
:04024000d4020000e4
:020000040000fa
:04024400d4020000e0
:020000040000fa
:04024800d4020000dc
:020000040000fa
:04024c00d4020000d8
:020000040000fa
:04025000d4020000d4
:020000040000fa
:04025400d4020000d0
:020000040000fa
:04025800d4020000cc
:020000040000fa
:04025c00d4020000c8
:020000040000fa
:04026000d4020000c4
:020000040000fa
:04026400d4020000c0
:020000040000fa
:04026800d4020000bc
:020000040000fa
:04026c00d4020000b8
:020000040000fa
:04027000d4020000b4
:020000040000fa
:04027400d4020000b0
:020000040000fa
:04027800d4020000ac
:020000040000fa
:04027c00d4020000a8
:020000040000fa
:04028000d4020000a4
:020000040000fa
:04028400d4020000a0
:020000040000fa
:04028800d40200009c
:020000040000fa
:04028c00d402000098
:020000040000fa
:04029000d402000094
:020000040000fa
:04029400d402000090
:020000040000fa
:04029800d40200008c
:020000040000fa
:04029c00c822000074
:020000040000fa
:0402a000d402000084
:020000040000fa
:0402a400d402000080
:020000040000fa
:0402a800d40200007c
:020000040000fa
:0402ac00d402000078
:020000040000fa
:0402b000d402000074
:020000040000fa
:0402b400d402000070
:020000040000fa
:0402b800d40200006c
:020000040000fa
:0402bc00d402000068
:020000040000fa
:0402c000d402000064
:020000040000fa
:0402c400d402000060
:020000040000fa
:0402c800d40200005c
:020000040000fa
:0402cc00d402000058
:020000040000fa
:0402d000d402000054
:020000040000fa
:0402d400d402000050
:020000040000fa
:0402d800d40200004c
:020000040000fa
:0402dc00d402000048
:020000040000fa
:0402e000d402000044
:020000040000fa
:0402e400d402000040
:020000040000fa
:0402e800d40200003c
:020000040000fa
:0402ec00d402000038
:020000040000fa
:0402f000d402000034
:020000040000fa
:0402f400d402000030
:020000040000fa
:0402f800d40200002c
:020000040000fa
:0402fc00d402000028
:020000040000fa
:04030000d402000023
:020000040000fa
:04030400d40200001f
:020000040000fa
:04030800d40200001b
:020000040000fa
:04030c00d402000017
:020000040000fa
:04031000d402000013
:020000040000fa
:04031400d40200000f
:020000040000fa
:04031800d40200000b
:020000040000fa
:04031c00d402000007
:020000040000fa
:04032000d402000003
:020000040000fa
:04032400d4020000ff
:020000040000fa
:04032800d4020000fb
:020000040000fa
:04032c00d4020000f7
:020000040000fa
:04033000d4020000f3
:020000040000fa
:04033400d4020000ef
:020000040000fa
:04033800d4020000eb
:020000040000fa
:04033c00d4020000e7
:020000040000fa
:04034000d4020000e3
:020000040000fa
:04034400d4020000df
:020000040000fa
:04034800d4020000db
:020000040000fa
:04034c00d4020000d7
:020000040000fa
:04035000d4020000d3
:020000040000fa
:04035400d4020000cf
:020000040000fa
:04035800d4020000cb
:020000040000fa
:04035c00d4020000c7
:020000040000fa
:04036000d4020000c3
:020000040000fa
:04036400d4020000bf
:020000040000fa
:100400004f0922000e7f24000e018800000000002a
:10041000000020000000e000020032000001200087
:100420002002880014000700c10007000000e0005f
:1004300003003a00a0332200010020000200370030
:100440000000200001002000810f70000100320038
:1004500014000700000020000000e000020032004d
:100460000000020000000000a821020000000000bf
:100470000040da000000fe004440a90020012000f6
:100480000000e0000300320000002000a00188000e
:100490004440a800000006008a1f78008b1f7800e7
:1004a0000000060091018800800478000000eb0045
:1004b0001a003700e284440032a0b4009905ba0063
:1004c000e284440032a0b4009906ba00e2844400f9
:1004d00032a0b4000006eb00476fde00fd07b2005b
:1004e000636ce10003003a00ebff07000000eb0043
:1004f0000a003700606ce10004003a00005deb0088
:100500008b05e900fdff3e00040037006168e10053
:10051000010032000086eb000b00070019c7ba008b
:100520001905ba000e04e00003003a000a00e000da
:10053000e0ff3a0000000600fe07b2009e018800be
:100540008a047800f5ff3700395dba008b05e900b1
:100550000c003200295dba008b05e900080032006a
:100560000c00e00003003a00e284440032a0b40032
:10057000f5ff370019ddba008b05e900faff3a00f4
:100580008904e800e184440032a0b40000000600c1
:100590000612040000000000dc0d04000000000052
:1005a000da090400000000000040da000000fe004c
:1005b000ec8747008e1f78006c87570044002000ae
:1005c000041f7800000f78006c87570002afbe0050
:1005d000e1bf9f006c805700590907001e00be0054
:1005e0004f077800cf00b10000000600ec874700fd
:1005f0008e1f780011002000a1bf9f006c8757005c
:10060000002f78006c8057004f0907001e0078000b
:100610004f077800cf00b10000000600ec874700cc
:100620008e1f7800e20f500034003e0090048100dd
:10063000e10f500003003200e20f500011003a00b9
:100640000c003700032220000300e00001003a0004
:100650000040da002002e200020035002822ef000c
:1006600021e2a8002342ab000d003a002342a8007b
:100670000b003700032320000300e00001003a00d4
:100680000040da003002e200020035003822ef00bc
:1006900031e2a8003342ab0001003a003342a80027
:1006a000820178000b0037003102fb00e10f50009f
:1006b00004003a002322ab00feff3a002411880018
:1006c000030037003322ab00feff3a00a41188007c
:1006d0008301e9000300e000f3ff3a00e10f50005e
:1006e00003003a002302ab00feff32000c0037008b
:1006f0003302ab00feff3200090037006c87570061
:1007000033002000031f7800000f7800c1bf9f0056
:10071000d2bf9f006c8057000d0907005fb997009a
:10072000020078004f077800cf00b10000000600fb
:100730000000050014002000990237000001be00ef
:100740001b0007000470a70003f0a10003f8a3003a
:1007500013003a006509b1001000320009003500ad
:100760006928e100020035000100280000000500b2
:1007700000004000818048008502e900fcff3a004b
:1007800000000600f88f4200050035008100d1000e
:100790000080d3008502e800fcff3a00000006005c
:1007a0008000eb00000005006011b80097023700e0
:1007b000c70ade00f107b200f50fb20008003200f0
:1007c000e1cf4200020032000170a00024000500c9
:1007d000810f70000100320004080500440005008c
:1007e000810f700002003a00140005008502e90044
:1007f0000000400081c04800fcff3b000170a000e9
:1008000024000500889fbe008a9fbe008c9fbe000a
:100810001b0020000202be000586680006002800ba
:10082000060666004709de00f20fb20082003200c1
:100830000243e80080003200c729de00f30fb20057
:100840007d0032000343e8007b003200f107b20074
:100850000170a000f507b2000570a000c708dd0018
:100860004903de00868070004700dd00c72add00f6
:100870004923de00868272004722dd000305510015
:10088000040350008583580003003100000040003d
:10089000818048000a05e9008c1f78008a9fbe000d
:1008a00004005000858058000402420085824a00fe
:1008b00000004000818048000005eb000004be00fd
:1008c0006033b8000406be000d48e1005600310058
:1008d000110009004dccd8000c01b8000d02b80081
:1008e0008481410060824a008283530003045c00db
:1008f00084845c0060055d000a00e00025003a0089
:10090000800578000d40e100490031008800780042
:1009100007007800110009004d88d8000c01b800cc
:100920000d02b8008481410060824a00600311001a
:1009300083835b0004045c00e0845c000900e00049
:1009400021003a004f01be000300e0002b003200fe
:10095000e3016000070673008c8171000100320022
:10096000640070004200de004e5edd000c0070008e
:10097000c258de0001e0a00083010700cf0178002b
:10098000818071004f06be004f05be004f04be00bf
:10099000000006008c8343000d044c00e0844c00f2
:1009a00060054d000000e9000a00e000d4ff3200bd
:1009b0008c8343000d044c00e0844c0060054d0026
:1009c0000000e900ceff37000c0343008d834b008d
:1009d00060044c00e0844c000000e9000900e000e5
:1009e000d8ff32000c0343008d834b0060044c00a1
:1009f000e0844c000000e900d2ff37004200de0036
:100a00004e5edd000c007000c258de0001e0a00068
:100a1000cf0178000300e000daff32006000100030
:100a2000e0801800d7ff3700f0ff2f00aaff370043
:100a3000f0ff2f00b9ff37000404be002f010700ac
:100a4000870678000004fd008104fd002b010700eb
:100a5000078366000678a300030032000960a70040
:100a60000800be002c0037000d78a3000200320001
:100a70000800be00280037000778a30026003a00cf
:100a800001f0a10009f0a1000668a30003003200f4
:100a9000f1ff2700f0ff2f00baff37000d68a30019
:100aa000030032000800be008c807000b5ff3700e4
:100ab0000768a30007003a000648a30003003200bd
:100ac000f1ff2700f0ff2f00aeff37000d48a30015
:100ad000030032006000b8008c807000a9ff37006e
:100ae0000748a3000400320001f82700000020009e
:100af0008c807000a3ff3700760107000004fd0022
:100b00008104fd0002057800720107000802be00a2
:100b10008a01780059ff37000160a000120220000e
:100b2000f240880097ff37000100e0001200320019
:100b30000500e00010003200889fbe008a9fbe00c2
:100b40008c9fbe000006eb0001f8a30003003200fa
:100b500060001000e08018000cf0a00005f8a30071
:100b60000300320060021200e0821a000cf0a200c2
:100b70008005eb0041ff37006000b800020005006f
:100b8000038368000700280007036300470ade00ac
:100b90000480a100c71ade000580a100f70f200025
:100ba0000720e100420032000728e1004000320047
:100bb000889fbe008a9fbe008c1f7800f107b2009c
:100bc000f307b2000400e000640032000170a000ee
:100bd0000500e000680032000370a00085054200b7
:100be000eb07b1000204b8000302b800848444009b
:100bf00060854a00020ab800848444000a854a00dd
:100c0000030ab80004054500040033000804d000be
:100c10008984d2000a85d2008b05e9006158e10081
:100c20003d0035000210200009016100030820008a
:100c300089816100f70720008783640008867300bc
:100c4000c84cde00c853dd00878474004855de00c0
:100c50000300e00006003200820376000400320048
:100c60008904e80060054d000a88a3000c003a00e2
:100c7000f70f20000758e10044003d000a70a10072
:100c8000c75ddd000a8575008a00730009007800e1
:100c90004f0678004f05be004f04be00000006005e
:100ca0000a05d1008984d3008b05e800f0ff3700e6
:100cb000881f78000604780090000700070278007b
:100cc0000001fd008101fd008c0007008702780013
:100cd000850372000778a300050032000001fd00c3
:100ce0008101fd009f0007004f047800000006000e
:100cf000850372000748a30003003200f0ff2f00b5
:100d0000f1ff2700f8ff37000000200001f827005e
:100d100088807000f4ff3700880178004848dd00c3
:100d2000808171004848de00c850dd00010070007d
:100d3000c850de00060478000b017800160007009a
:100d400088807000d2ff37000500e0000500320007
:100d5000170020003a0007009dff37008103700054
:100d6000f9ff3a00860078004f0678004f05be0074
:100d70004f04be000000050083037100f9ff32003c
:100d8000270020002e00070094ff370001f82700fd
:100d900086807000f4ff37000100e000260032007a
:100da000610111007810e10023003c006022b800ce
:100db0007010e10004003500800278000100780026
:100dc0008000eb00700151000200e00009003400d7
:100dd00070031100062add00822ade008603dd0092
:100de000878272000200de00860bdd0007007000c3
:100df0008208de0084817100f4ff27000482620013
:100e00008481710004002800848262006102600015
:100e100005f0a60000000600048271000700320001
:100e20000000e800e0804800000006000002be006c
:100e30006000b800efff37006000b8000000060057
:100e4000889fbe000004eb006138e10016003a0004
:100e50000100e00008003a00c800de004800dd00a4
:100e6000880020000100e00003003a00c800de0016
:100e70004800dd00680444008184cf00e984540008
:100e8000060034008908dd00f08314008703de00cb
:100e9000878070000900dd0009044400610214002d
:100ea0004f04be00000006000300e00008003a0006
:100eb000c811de004811dd00880020000300e000ba
:100ec00003003a00c811de004811dd006804440048
:100ed0008384cf00e9845400060034008919dd00c2
:100ee000f08314008713de00878171000911dd0093
:100ef00009044400e1021400e9ff37002700200044
:100f000001f0a70017002000470bde00f60fb2002b
:100f1000040032000643e8000a0032004702b30032
:100f20000000060001037800f607b2000603700017
:100f300002003a000703b300000006008702b30076
:100f40000000060001037800f607b20006037000f7
:100f5000020032000770a000000006000760a00039
:100f6000000006000478a300040032000578a30006
:100f7000030032000168a30001003a000200be0035
:100f80000160a0000000060081017000270032000f
:100f90008002eb0001f8a3000300320060001000a3
:100fa000e080180015002000f40720000202420033
:100fb00020003400f70320008703600006042000af
:100fc0000003630002082000000161004700de000a
:100fd000c909dd0000807100c708de000600e000de
:100fe0000800320087037100060032001000b000d4
:100ff0000180b0000188a30002003200c108de00b9
:101000000402e800f107b200f30f20000320e10022
:1010100003003d004722dd008100720029003700f7
:1010200001f827000000eb00260037006000b80040
:1010300000000600680212007f20e1000200340078
:101040006000b8001f0037006011b8007020e10098
:101050000400350080017800010078008000eb007a
:10106000700252000400e00009003400f003120096
:101070000719dd008419de000703dd008681710099
:101080000400de00070bdd00060070008408de00af
:10109000f7ff2700838363008703710006002800a1
:1010a00003036300070032000700e00003003a007a
:1010b0006101600002817300020032001000b00084
:1010c0000180b0000500a6000000060001f0a000ad
:1010d000000006004f0ade004709de00f107b200fb
:1010e000f20fb2000b003200f207b1000170a00055
:1010f000c708dd00c901de00838070004700dd0005
:101100000400a6000000060060001000e080180047
:1011100000000600810f700001003a000000060088
:101120008182cf000500e00010003e008082cf00e9
:10113000ee8242007028e1000400390007003e0002
:10114000800078000000eb000e0037007083120072
:101150008600de000500dd000a00370070835200c3
:101160008600dd000000eb0006003700e28252003e
:101170008508dd00708312000603de0086807000a3
:101180000500dd007507b0000501ea000400a600b7
:101190000000060060001000e0801800000006005b
:1011a000889fbe008a9fbe00841f78006c000700e5
:1011b0004f00780011003300f0ff2f00838f6c0088
:1011c00006003b00040565000a00a7000800370080
:1011d00009f0a6001000200008003700820f54001c
:1011e000838f5c00030039001000200001003e00e6
:1011f0000000200009f0a7000000ea004f05be0033
:101200004f04be000000e00000000600889fbe0002
:101210008a9fbe0000827000040271000482710087
:10122000260032000004be000200be006011b800bb
:101230006b092000950220000182cf000a003900ce
:101240000541b1000082cf00070039000541b1001f
:101250000982cf00040039000541b1000882cf00a7
:10126000010039000541b100054252001200320070
:101270000a003b0082817100610164008100d1009d
:101280000080d3008984d3000884d3008b05e80054
:101290000442e800f7ff3a00070037000804440062
:1012a00089844c0000004800818048008b05e900db
:1012b0000442e900f9ff3a00030007004f05be00b1
:1012c0004f04be0000000600810020006180550030
:1012d0000b003d000b00200061fe2f000100e1002b
:1012e0001d00340082817100610164008904d10015
:1012f0000884d3000000e800faff3a0071002000e3
:101300006100640003007000020060000900320008
:1013100061044400e0844c000988a5000500320007
:101320008b05e8006808e10002003a008904d1005a
:101330000884d300f20f20000258e10005003d00b0
:10134000c75ddd00f907b2008980750008007800ec
:10135000000006000bf827008b0078000000050055
:101360000004be0012fd07000003be000405be001d
:101370000200be000efd0700844f7500000006004d
:101380000000fa00cfb897006881570090018100f3
:1013900010007800e60107000080fa000000060057
:1013a0000b00070063000700130107003b01070063
:1013b00095003700000006008003220000000600b0
:1013c000fdff0700b0018900a001890000000600b0
:1013d000ec874700889fbe008a9fbe008c9fbe009e
:1013e0008e1f78000006780001047800180790002e
:1013f0002805900098067800cdb79f00b8059000aa
:101400003202be002203be000400be000601be0080
:101410004f18de006011b8008000eb00d0b79f00cd
:10142000e1b79f00f2b79f0083bf9f008004780060
:101430000900e000060032006000b8006011b8004a
:101440000402500085825800060359008783590022
:101450000e00e000020035000d10a100cdb79f0086
:101460000900e00005003a004fb097000028a300f3
:1014700002003a000038a300020032008a00e900ae
:10148000010037008a007800f8815700a200200090
:1014900008007800860007000900e00003003a0019
:1014a000cfb097000128a300080032000000e90037
:1014b00000814500b1c2b3000900e0000100320024
:1014c000d1c2b30001497800050037000138a300fc
:1014d000030032000000e90001c2b300817578000a
:1014e000480190000201e9000001510080804500a0
:1014f0004fb297008a0178000c007800cc010700f9
:101500009c0090000188a300040032009800900025
:10151000810f500001003d00010078004f07780066
:101520004f06be004f05be004f04be00cf00b10005
:10153000000006000200fa00889fbe008a9fbe00dd
:10154000000578000104780002007800180190007e
:10155000a805900098007800b1bf9f00b8049000e3
:101560000200e000020035000110a100b1bf9f00a1
:10157000ea815700820020008b0078003002be0014
:101580002003be0008007800490007003fb997001b
:10159000f0006100030032000000e90001c3b30065
:1015a000817478003fb99700e800610003003200c1
:1015b0000000e90001c2b300817478004801900086
:1015c0000201e90000015100808044003fba970009
:1015d0008b0178000a007800950107009a009000be
:1015e0000188a3000400320098009000810f500091
:1015f00001003d00010078004f05be004f04be0011
:101600000080fa0000000600ea874700889fbe00bd
:101610008a9fbe008e1f78000004780003007800c7
:101620007287570084e2260055c72600049fbe003b
:10163000c3962200030f78006c875700004feb0021
:1016400011059000a1049000910578000200e000cf
:10165000020032000207780001003700728757004d
:101660000000e00002003a000e00780003040700ca
:101670000a00e000030035008a0f50000100360028
:101680000a0078000b0278008901780000017800d8
:101690008e00780008007800650107004f07780089
:1016a0004f05be004f04be00af00b10000000600b1
:1016b000f4874700889fbe008a9fbe008c9fbe00b3
:1016c0008e1f78000605be000404be0081bf9f0087
:1016d00082b79f00f3b79f00b0009000e1b79f0072
:1016e0001301780092b79f0090069000400690008a
:1016f0000c06e9000d00e00001003d001d00200087
:10170000efb197000c8041000048eb001e00200064
:101710001f0037000c06e9000fb09700cf80de00f5
:101720006109b900a0b79f00b1b79f00c2b79f0081
:10173000d3b79f000203be000002be000800be0037
:101740000a01be00ad05070000077800efb0970062
:101750000c80400003c3b300034847008d06e90036
:101760000fb897000000e90080bf9f002fb29700dc
:10177000bfb297004fb39700dfb397000800be00d9
:101780000a01be00960507000205be000004be0067
:101790000c00e0000d003200e00f5400e08f5c0010
:1017a000e00f5d00e08f5d00daff3a000d00e00021
:1017b000d8ff3c008fb897000100e0000300340020
:1017c0001fb197000218a300d2ff3a000e00e000fc
:1017d00002003a00ffb197001340a1000c0078000e
:1017e0004f0778004f06be004f05be004f04be00f5
:1017f0004f01b100000006000200fa00889fbe0001
:101800008a9fbe00800478000104780002007800fe
:10181000180190002805900098007800b1bf9f0043
:10182000b80590000200e000020035000110a100a0
:10183000b1bf9f00ea815700a20020008a00780013
:101840003002be002003be000800780098ff0700a9
:10185000480190000201e90000015100808045002c
:101860003fba97008a01780009007800f00007006d
:10187000990090000188a3000400320098009000b5
:10188000810f500001003d00010078004f05be00af
:101890004f04be000080fa0000000600fa874700ef
:1018a000889fbe008a9fbe008c9fbe008e1f78005e
:1018b0008004780001047800820578001801900007
:1018c0002805900018077800b80090000200e0009a
:1018d000020035000e10a1000100370012002000a8
:1018e00070006700e0b79f00090032003b02be00b5
:1018f0002b03be00e00f5200e08f5a00e00f5b00a8
:10190000e08f5b00020032008a86e90001003700a8
:101910008a067800e8026700f5b79f0001003200f0
:101920008d06e9003b02be002b03be00e4af9f0022
:10193000f5af9f0086b79f0097b79f0048069000bd
:101940000c06e9000c8040000048eb00efb2970065
:101950007fb297008903780081047800d8af9f0098
:10196000020478008bbf9f008a0578000345780049
:101970002a0037000c06e9006fab97006f00630088
:10198000e90f500002003c000003b00001003700e6
:101990007005b0000a03fb001604b100f90f5300f4
:1019a0000c003e00000378000650a0001606b100af
:1019b000f90f530007003e00b4b79f00a5b79f0082
:1019c000c7b79f007c030700cfb39700afb2970063
:1019d0003fb2970080747e000804e9008d06e9009c
:1019e0006fa89700ffa897000fb197009fb19700cd
:1019f000460020008301d1000281d3008180d30002
:101a00000080d3000603e900faff3a00e0af9f0030
:101a1000f1af9f0082b79f0093b79f00e10f560080
:101a20000f0036006fa89700ffa897000fb197002e
:101a30009fb19700e00f5000e08f5800e00f590071
:101a4000e08f5900cbff3a000800e000c9ff3c00de
:101a50000d00e000020034000e18a300c5ff3a009c
:101a600089007800f4b79f00870478005fac970086
:101a70008a4178000b0578008fbd97000500e000d3
:101a8000100032003b02be002b03be00e4af9f00fb
:101a9000f5af9f0086b79f0097b79f00e00f5200f9
:101aa000e08f5a00e00f5b00e08f5b000500320022
:101ab0000c06e90083707e000c06e90000c3b30049
:101ac00080707e00ffb297000500e0000300320046
:101ad0000c06e90000c2b30080707e00480190004f
:101ae0000201e9000c0151008c8040000e027800d8
:101af0008a017800090078004d00070099009000e5
:101b00000188a3000400320098009000810f50006b
:101b100001003d00010078004f0778004f06be002d
:101b20004f05be004f04be00af01b100000006002b
:101b30000200fa00881f780000047800e2bf9f00ce
:101b40006481570008007800ec01070098009000bd
:101b50000148a300010032000080eb004f04780030
:101b60000080fa0000000600889fbe008a1f7800ef
:101b7000800478004900900002047800800f54002f
:101b80000100360000047800080178006a854400ee
:101b90001a0078004f0207001a004400000d780078
:101ba000e8844400990c14000048eb004f057800cd
:101bb0004f04be00000006001000780097fa3700be
:101bc000900190000388a30001003200e6ff370077
:101bd0000348a30001003a00f7ff070000000600d9
:101be000889fbe008a1f780080047800490090001a
:101bf00002047800800f54000100360000047800d1
:101c0000080178006a8544001a0078003102070054
:101c10001a004400000d7800e8844400990c140078
:101c20000048eb004f0578004f04be00000006009e
:101c3000f2874700889fbe008a9fbe008c9fbe002f
:101c40008e1f780080047800010578000204780077
:101c5000830578006107620002003a008b0f540090
:101c600008003900080178008a007800090078002f
:101c7000d3ff07008b0f540002003900880578005d
:101c80001e003700088655000c017800f00f560042
:101c90000100360002012000010220007e80570072
:101ca000130207008c0678000500370002012000af
:101cb000fe80570009007800c1ff0700f08656003b
:101cc000ef8f5600f9ff3e004461de0000ff2f0059
:101cd0000091b90002014600fe805700090078001b
:101ce000b7ff07000e00e00004003a00080178008a
:101cf0008a00780009007800b1ff07000b00780027
:101d00004f0778004f06be004f05be004f04be00cf
:101d10002f01b100000006000000050000000500d2
:101d200000000500000178000040eb008080fb000f
:101d300081804000a307220063c278000404e00011
:101d400003003a00b007220060c0780000000600df
:101d500092017800934f520004003a00b00722002d
:101d600060c078000309e800010037000040e80087
:101d7000ea4f5000edff360000000600f6874700ee
:101d8000889fbe008a9fbe008c9fbe008e1f780079
:101d90008004780001047800830578000406780048
:101da0000000eb00c0b79f008080eb00d1b79f0020
:101db000e0b79f00f2b79f000008200080bf9f009f
:101dc00098007800010078000005eb000100370062
:101dd0000a05e800304178000204e0000300320008
:101de00053c2b300834f5100f9ff3a000a00e000ec
:101df000040032000a0178000900780070ff070033
:101e0000180c45001807780050c2b3009e4f100010
:101e100033013a000e07e8000e0c7800100037007e
:101e2000cfb097000100a0000b003700cfb09700a3
:101e30000110a00008003700cfb097000120a000db
:101e400005003700cfb097000130a0000200370036
:101e5000cfb097000140a000c1b79f00000ce80080
:101e60001800780090407800b2c2b30082cf5000d2
:101e7000f1ff320007003c0002c2b30082cf5000e5
:101e8000f0ff320032c2b30082cf500007003a00a8
:101e9000efff3700d2c2b30082cf5000e0ff320024
:101ea00002c3b30082cf5000e0ff3200a2c2b300f1
:101eb00082cf50000d003a00000ce8001c80e900c1
:101ec000000e780010007800e0b79f000000e000ee
:101ed0000f003d00cfb097000100a200c1b79f00e6
:101ee0000000ea00e0b79f00090037000502070084
:101ef000e0b79f0001003700000ce80018007800f0
:101f00009000fb000103b100e98f5000faff36009a
:101f10004fb097000008a300020032000010a1009b
:101f2000c0b79f0018007800e1c2b30090cf100046
:101f300016003a008000eb00d1b79f000000e800d7
:101f4000000c7800a1c2b30090cf100006003a0048
:101f5000000ce8001c80e900000e780010007800fa
:101f6000d0b79f0009003700e6010700d0b79f00f7
:101f700001003700000ce800180078009000fb001a
:101f80000103b100e98f5000faff36000800780025
:101f900064ff070080467800180078001000fb00fe
:101fa000fe01070091062000810f5000380032002a
:101fb00012003c0041062000810f50003400320026
:101fc0000a003c0011062000810f50002000320062
:101fd00031062000810f50009a003200510220008b
:101fe000810f5000ae003a00a700370071062000b4
:101ff000810f5000aa003c0082003700010720003a
:10200000810f50005c00320007003c00e106200018
:10201000810f500074003200f1062000810f500043
:102020009f003a003900370051072000810f50000f
:102030002700320081072000810f5000420032004b
:1020400031072000810f500095003a0085003700cd
:102050008d80fb000c01780000fe2f000f00400077
:10206000dc0107000000e0009c003200180078004e
:10207000000ce8009041780002fe2f000f014100a3
:10208000f88057000900780024ff07000e00370091
:102090008d80fb008c0178001200200000fe2f00d4
:1020a0000f004000ea0107000000e0008b00320052
:1020b000180ce80002fe2f000f014100f8805700c5
:1020c00009007800c2fc07000005450084003700c5
:1020d0008d80fb008c0178000001eb0000fe2f00da
:1020e0000f004000da0107000000e0007b00320032
:1020f000180ce80002fe2f000f014100f880570085
:1021000009007800bcfd0700efff37008d80fb0061
:102110008c0178000001eb0000fe2f000f00400052
:10212000cb0107000000e0006c003200180ce80052
:1021300002fe2f000f014100f880570009007800cf
:10214000fcfc0700e0ff37008d80fb008c0178006d
:102150000001eb0000fe2f000f004000bc01070053
:102160000000e0005d00320018007800000ce8007c
:1021700090417800160037008c0178000001eb00d8
:10218000010f200000fe2f000f004000b0010700eb
:102190000000e00051003200180ce8000fb097007a
:1021a0009fb097002fb19700bfb19700e00f50008c
:1021b000e08f5800e00f5900e08f590003003a000b
:1021c0008001eb00420722004000370083c7b300c4
:1021d00002fe2f000f014100f8805700090078002f
:1021e000aefd0700b8ff37000b0145008d80fb00f6
:1021f0008c01780000fe2f000f004000ed01070069
:10220000360037008d80fb000c01780000fe2f00a7
:102210000f0040006f0107000000e0002f003200b7
:1022200018007800000ce8009041780002fe2f00b2
:102230000f014100f880570009007800b7fe070041
:10224000a1ff370000c8b30080cf560023003a003a
:10225000180ce8001c80e900000e7800104078009f
:102260000d00370000c8b30080cf56001b003a00b5
:10227000180ce8001c80e900000e78008001eb00db
:10228000100178001100370001c8b30081cf56005b
:1022900012003a00180ce800e0df9f000800370049
:1022a00050c2b300e0df9f000e0c78000000eb008e
:1022b000c0b79f00e0b79f008080eb00d1b79f00c0
:1022c00013002000e2fd2f000f014100f8805700ad
:1022d00009007800ccfc07007bff3700180ce800f1
:1022e0000a0078004f0778004f06be004f05be0079
:1022f0004f04be006f01b100000006008200fa002a
:10230000889fbe008a1f780000057800820478004c
:10231000c13f9f000004eb00100037000902780065
:1023200088017800a2f72f000f01410081f72f00ec
:102330008f8040000a00780090fe070008004000ef
:10234000880f500004003d00b00420008004890084
:102350000084eb0004003700000478004f38970039
:102360001004e000edff3a00080078004f05780007
:102370004f04be000080fa0000000600889fbe00e7
:102380008a1f780000047800010578000000eb0047
:102390000800e0001a003200180090000058a30066
:1023a0000c003200ea04440068009000990f10000d
:1023b00008003600b80990000001eb0082007800a8
:1023c00008007800030001000080eb001900e00025
:1023d0000b003200740044000008eb006c00440065
:1023e0000008eb006a0044000008eb000000eb006e
:1023f0000a00e00002003200180078007bf80700b5
:102400004f0578004f04be0000000600889fbe0004
:102410008a1f78000004be000000eb000800e00006
:1024200029003200180090000058a300120032006a
:102430006a054400680090009a0f100008003600fa
:10244000b80990000001eb008200780008007800d5
:10245000030001000080eb001a00e0001a003200c7
:10246000740044000008eb006c0044000008eb001e
:102470006a0044000008eb00780a90000810900001
:10248000800f5200060031000002520011002000af
:10249000cfa2de00612bb9001800780044f80700d5
:1024a00000022000080040000008eb007e0044000d
:1024b0000008eb000000eb000900e0000200320021
:1024c0001800780049f807004f0578004f04be0057
:1024d000000006008001780002003700b159780042
:1024e0000201e9000200e000fcff3a0000000600e3
:1024f000889fbe008a9fbe00800478000200e00032
:102500005a00320001407800814c780082814400fa
:10251000f1f99f00e20f51005400360091449800f9
:10252000a1449800e1f99f00d1f99f00e60f510006
:102530004e003600b1449800c1f99f00e80f5100e9
:102540004a0036000905ea00630565000a84440074
:102550000a055100c1ff2f00010565000080fb0046
:102560008000eb0012102000131020006e01070005
:10257000008cbe000a01440060b99f0071b99f0041
:10258000e80f550039003600200498003104980007
:10259000400498005104980020b99f0031b99f0071
:1025a00040b99f0051b99f00f80f55002f00360029
:1025b0006004980071049800000c9800110c9800b9
:1025c000200c9800310c9800400c9800510c980099
:1025d00020b19f0031b19f0040b19f0051b19f00d9
:1025e00060b19f0071b19f0000b99f0011b99f00b9
:1025f00064016400780141000204440002055500b2
:102600006011b8000203be000002be000403be0059
:102610006022b80000007200818072000201730025
:10262000838173000f00370008027800009abe0013
:10263000029abe00009abe000292be00000c9800f2
:10264000110c9800220c9800330c9800400c980054
:10265000510c9800620c9800730c98000a02b100ab
:102660000802b000ff0f5500efff3e0009007800a0
:102670004f05be004f04be00000006008000780039
:10268000040037003104e00002003a00000051006d
:1026900000000600010178000108a300f9ff3a00dc
:1026a0008101780031017800f4ef2f00020242002e
:1026b0000281ea00020162000408280004016100ae
:1026c000f7ff320083007800010178003104e00058
:1026d000fdff3a0000005100000006008000780075
:1026e0001000200002022000828f500004003200ff
:1026f000e9805000e48f5000010036000000eb003c
:1027000000000600889fbe008a1f780080047800c1
:102710000904780088047800394578000a00fb0035
:10272000eeff07000000e000f9ff3a00b0c2b3007e
:10273000804f550005003200d0c2b3008000eb008e
:10274000804f550005003a00020037008000eb0082
:1027500001003700110020000804e8000000eb0031
:10276000030037006a02b900020052000003b00003
:102770003801fb0003fd2f0082814100e98f5100e9
:10278000f8ff36000100e00001003a000000ea0016
:102790004f0578004f04be0000000600f1fb2f003b
:1027a00080804000f98f500001003e000050a000e2
:1027b00000000600f9ff3700f1f92f00808040008b
:1027c000f98f500001003e00f005b2000000060045
:1027d000f9ff3700881f7800000478000008200007
:1027e000808f50001700350010082000808f5000a7
:1027f0000b00340030082000808f500011003a0098
:102800009200780068805000000978003002be0015
:102810002003be00049cbe000694be0007003700e3
:102820009202780064805200000978001000be0017
:102830009e000700009cbe000294be001000200015
:10284000010037000000eb004f0478000000060094
:1028500084082000848f50001d0032000d003c00d1
:1028600014082000848f50002700320002003c0032
:10287000040820000400370024082000848f500042
:102880002a00320044082000848f500048003a009b
:102890003b003700040a2000848f50002c003200d7
:1028a00004003c0004092000848f500040003a00de
:1028b0002d003700020c2000828f50001e003200d5
:1028c000020f2000828f500039003a00300037009c
:1028d0009380e9000200e0000500320081097800e1
:1028e0001102fb00cfa2de00612bb9002d003700e2
:1028f00081097800114278000482fb008002eb001d
:102900006033b8002700370013027800e40052005b
:102910000200e0000a003200810978001102be00c6
:102920004fabde00860378001e003700930278006c
:10293000e88052000e00370093027800e4805200d5
:10294000810978001102be006033b800150037001d
:102950009380e9008109780011027800cfa2de009f
:10296000612bb9000f00370013037800e800530013
:10297000810978003102be002103be000900370042
:102980009380e9000200e00002003200f1ff37000e
:102990009380e90081097800110278008002eb0041
:1029a0006033b8000498be000690be001000050019
:1029b0000000050044082000848f500027003200ea
:1029c0000a003c0014082000848f50001c003200d4
:1029d00024082000848f50002600320004082000c4
:1029e000848f50002c003a001c003700040920009e
:1029f000848f50001f00320004003c008408200037
:102a0000848f500024003a0007003700040a200099
:102a1000848f500011003200040c2000848f50007d
:102a20001d003a00060037009380e9008109780014
:102a3000910078000108780082487800150037007e
:102a40009380e900810978009100780001087800fe
:102a5000cf91de008288be000e0037009380e9002f
:102a600081097800910078000108780082087800d8
:102a7000080037009380e900810978009100780010
:102a8000010878006112b900612bb9008498be007a
:102a90008690be0010000500000005000000060042
:102aa00047fa0700fdff0700fcff370081037800ad
:102ab0003ff707000001be006000b8000478a300e3
:102ac00013003a006220e10015003e000d003900bd
:102ad0008301d1000281d3008180d3008301d10022
:102ae0000281d3008180d3008301d1000281d30011
:102af0008180d3000538b000c42add00f300b200a5
:102b00008381720007f0a70003f0a0000000060018
:102b100083ff2700020020006110b900f9ff370091
:102b200003ff2700f7ff3700020ab900001bb900b6
:102b30000200b8008100420081004300000006004e
:102b400000c0da000000060000c0da000000060045
:102b500000c0da0000000600889fbe008a9fbe0009
:102b600030044200b0844a0030054b0090854b0091
:102b70006000b1000898be000a90be000440e10069
:102b800005c8e10006d0e10007d8e10002003100ed
:102b9000680040001008e8004f05be004f04be006a
:102ba00000000600889fbe008a9fbe003004be0061
:102bb0002005be000418540005985c0006185d004e
:102bc00007985d00110020000440e10005c8e10005
:102bd00006d0e10007d8e100010039008000eb00d9
:102be000108810004f05be004f04be000000060014
:102bf000f4874700889fbe008a9fbe008c9fbe005e
:102c00008e1f7800d0b79f00e1b79f00f2b79f00fa
:102c100083bf9f000605be000404be00cfae970030
:102c20000000eb00c0b79f00b0b79f00a0b79f00a7
:102c300090b79f0080b79f00000678004fb09700c4
:102c4000000140000000e00006003d003c000700dd
:102c50000f074700450007000f004000beff0700b8
:102c600005003700360007000f0747003f00070048
:102c70000f004000cbff07004fb797000e00e000a9
:102c80000c0035005fb29700efb297007fb397005a
:102c90008fbb970010002000010020006011b800d9
:102ca000000272008182720002037300838373004a
:102cb0001c0007000c06e80001042000810f5600ec
:102cc000deff3a000e00e00005003d000802be00f5
:102cd0000a03be0000fe2f000f0040009eff070009
:102ce0000d00e00005003a000fb297009fb2970078
:102cf0002fb39700bfb397000a0007005fb097009b
:102d0000efb097007fb197008fb997004f07780019
:102d10004f06be004f05be004f04be004f01b1007c
:102d200000000600010007000000060094b79f00a5
:102d3000a5b79f00b6b79f00c7b79f000000060069
:102d40009fb097004f08de0002017000a2b79f00fd
:102d50000fb097004f01de008180400081007100bc
:102d600091b79f000efe2f0000000600de007800e5
:102d70004f09de00000040000000710080b79f0096
:102d80006fa897004f01de0081804000010f7100a5
:102d90000e0007004f3ade00000040000400700003
:102da000e0af9f00090007000402420085824a004c
:102db00006034b0087834b00dcff07000802be00c0
:102dc0000a03be0000fe2f00000006001fb297009d
:102dd000afb297003fb39700cfb397000000060053
:102de000881f780018002000881f780080ff0700e7
:102df0008f87e9004f04780000000600801feb0079
:102e00007bff07008f87e90000000600889fbe0057
:102e10008a9fbe00e00f5000e08f5800e00f59007d
:102e2000e08f59000c003d006044b8006055b800c8
:102e30000000540081805c0002015d0083815d0020
:102e4000180020001500070008003d0018000700ca
:102e50000004eb00050037000004eb000f00070042
:102e600002003d001200070018002000dcff0700f0
:102e70000800e000060032006022b8006033b800ad
:102e80000000520081805a0002015b0083815b00d8
:102e90004f05be004f04be0000000600e00f5200c8
:102ea000e08f5a00e00f5b00e08f5b00000006003f
:102eb0006044b8006055b8000402540085825c008c
:102ec00006035d0087835d0000000600889fbe004a
:102ed0008a9fbe008c1f7800e00f5000e08f5800e2
:102ee000e00f5900e08f59000d003d006044b8002c
:102ef0006055b8000000540081805c0002015d0054
:102f000083815d001c0020000820e10009a8e10089
:102f10000ab0e1000bb8e1000d003d0008003700e9
:102f20000006eb00e00f5200e08f5a00e00f5b005c
:102f3000e08f5b0006003d006044b8006055b800bb
:102f40000402540085825c0006035d0087835d00f7
:102f5000aaff07000c00e000060032006022b80063
:102f60006033b8000000520081805a0002015b000b
:102f700083815b004f0678004f05be004f04be0002
:042f80000000060047
:020000040000fa
:102f84000d0a0000536f00007920000070720000e9
:102f94006f630000657300006f200000256400006b
:042fa4000000000029
:020000040000fa
:102fa8000000fa0000408000114080000080fa0014
:102fb800000006000000fa002135800000fe2f0006
:102fc800008060006000b300203588003136800042
:102fd800f00f2e008080600000302000010070009b
:102fe8003036880021a2a8002182a90001118000a2
:102ff800f0cf2f00008060000011880020e2a900b7
:1030080020c2a90020a2a9002082a9002062a9004c
:103018000111800090ff2f000080600000118800df
:103028002002a90011118000f0f32f000080600039
:103038001011880010102000401188004105800000
:10304800f0ff280000806000400588008560a90026
:103058009560a90021e2a8002342a800a001210050
:1030680001002000b80507000080fa0000000600f3
:103078000000fa0040a7a900313a800000e02f00c4
:10308800808060009002200001007000303a8800c3
:10309800213a8000f0f32f0000806000203a880079
:1030a800213a800000fe2f0000806000203a88004e
:1030b8003200200080072000a1092000337420007e
:1030c8008049780081497800824978001200200000
:1030d80060042000710520002374200080497800d6
:1030e800814978008249780000000000113a800088
:1030f800000027008080600000002300808f5000bf
:10310800faff3a0000000000113a80000002200097
:10311800008060000000e000fbff32000080fa0041
:10312800000006000000fa000080eb00601988002b
:10313800c002a800c022a800c802a8002c03a90049
:103148002c23a9002c43a900c8c2a800c8e2a900e2
:103158000080fa00000006000c00fa00889fbe00fc
:1031680064024700008abe00680047000288be006b
:10317800e8004700640047001101be001000be00cf
:103188007df60700008fbe0018c0b30002f02f00c4
:10319800f37724001e00be0064f507000000e0007d
:1031a800010035000044eb000804e000090032008b
:1031b80021088000f0fc2f000080600020088800b3
:1031c8001e00be005bf507000000780010088800ac
:1031d8004f00370002002000031024001e00be002c
:1031e80086f5070018c0b30002f02f00f37724001b
:1031f8004ef507000000e000010035000044eb0038
:103208000804e0000d00320021088000f0fc2f00c7
:10321800008060000040a000200888000200200014
:10322800031024001e00be0074f5070041f50700d6
:1032380000007800100888003500370002002000e0
:10324800032824001e00be006cf5070018c0b30058
:1032580002f02f00f377240034f507000000e000a7
:10326800010035000044eb000804e0000d003200c6
:1032780021088000f0fc2f00008060000050a000b2
:103288002008880002002000032824001e00be0039
:103298005af5070027f50700000078001008880095
:1032a8001b00370002002000033824001e00be0067
:1032b80052f5070018c0b30002f02f00f37724007e
:1032c8001af507000000e000010035000044eb009b
:1032d8000804e0000c0032002108800000032000f0
:1032e8000100700020088800020020000338240034
:1032f8001e00be0041f507000ef50700000078002b
:1033080010088800020037000080eb005d003700dd
:10331800200880004400de00634060000080fb005d
:10332800e10f500018003200e10f500003003c008c
:103338000000e000060032004c003700e20f5000a9
:1033480024003200e30f50003500320047003700f8
:10335800100880008000eb0011f5070064024700a8
:103368000001be001400be0024f507000001be00e5
:103378000000200001f8230020f507000040880025
:10338800114088003e00370064004700020020001a
:10339800031024001000be0018f507000004be004a
:1033a800100880008000eb00fdf407000001be005b
:1033b8000800be0011f507000001be000000200053
:1033c80001f823000df5070000408800114088002f
:1033d8002b00370064004700020020000328240067
:1033e8001000be0005f507000004be0010088000ac
:1033f8008000eb00eaf407000001be000800be00f0
:10340800fef407000001be000000200001f82300c0
:10341800faf40700004088001140880018003700bf
:103428006400470002002000033824001000be009a
:10343800f2f407000004be00100880008000eb00d2
:10344800d7f407000001be000800be00ebf4070037
:103458000001be000000200001f82300e7f4070087
:1034680000408800114088000500370068004700c8
:103478001001be00024088001340880000000000d0
:103488000000eb004f04be000080fa0000000600b8
:103498000000fa000021ef0005a1a80004c1a9005e
:1034a8000421a90021058000000027000100700008
:1034b800200588008460a9009460a90005e1a9009e
:1034c8000080fa00000006000000fa008226ef00e3
:1034d80087a0a90097a0a8009105800000072000f8
:1034e80001007000900588000080fa0000000600c6
:1034f8000400fa008e80e8008008780021408000ef
:103508000e80e80010007800008050000000e00005
:1035180002003d000080eb001100370021408000d0
:103528000e80e800100078000080500020408800dd
:1035380030408000000040008000780000822000b9
:1035480000804000000f7800314080000e80e800c5
:103558001000780000804000304088001e0078008d
:103568000080fa00000006000200fa000000eb00ec
:10357800000f78000f0037001e0078006c00b900bb
:103588008000780000f92100008040008000eb00f6
:10359800010878001e0078006c00b90080007800ef
:1035a80020f9210000804000310020000108780047
:1035b8001e0fe8001e007800ea0f5000eeff3400ee
:1035c80081e0a800b2ff0700bfff07000080fa00f3
:1035d800000006000a00fa000e82e800008abe0019
:1035e800660047000288be0080bb2000204088009b
:1035f800660047001001be000e80e8001000be0003
:10360800d5fe0700000f78001e0078000000e000db
:1036180003003a00d4ff07000000eb000100370068
:103628001e0078000080fa00000006000000fa0082
:10363800e04080000080fa00000006000200fa0066
:10364800404080005140800061004000e080480018
:1036580040408800514088000000eb00000f7800cf
:10366800310037001e0078006c00b90000007800b7
:10367800ea00400000f921000080400010007800b6
:103688000000e000270032001e0078006c00b9003e
:1036980000007800e600400000f9210000804000aa
:1036a8001000be0061005000e08058001e01780044
:1036b8006c11b9008201780062f921000281410091
:1036c8000089be001e0078006c00b9000000780078
:1036d800e600400000f92100008040001000be0014
:1036e800e00f5000e08f58000e003a001e007800ee
:1036f8006c00b90080007800a0f92100008040002b
:103708008000eb00010878001e0078006c00b9000a
:103718008000780020f9210000804000210020006e
:10372800010878001e0fe8001e007800e90f50001d
:10373800ccff34000080fa00000006000800fa0000
:10374800e04080006c00b900000078008080e8004c
:1037580000f9210000804000100078000000e0001f
:1037680007003a00e04080006c00b9008000780053
:1037780020f9210000804000210020000108780085
:10378800e0408000ea0f500003003a000000eb0020
:10379800000f780008003700e04080008000e80053
:1037a800a000200000017800110009008200d80064
:1037b8008000fd00000f78008000eb0064004700e7
:1037c80001087800110020000e80e8000108780048
:1037d8002a0037001e0078006c00b900000078004d
:1037e8008080e80000f92100008040001000780087
:1037f800e20f500015003a001e0078006c00b90076
:1038080000007800e400400000f92100008040003a
:10381800900078006400470010007800808f500006
:103828000a0034001e0078006c00b900000078001f
:10383800e400400000f92100808040006400470057
:1038480011087800660047001e0878009e00e8000e
:10385800a000200000017800110009008200d800b3
:103868008000fd00000f78000e80e800100078004e
:103878008000e8000e80e800010878000e80e8006b
:1038880010007800ea0f5000d2ff340064004700af
:10389800100078000000e00003003a00a0002000bb
:1038a800000f78000200370066004700100f78000c
:1038b8001e0078006c00b9008000780020f9210013
:1038c800008040008000eb00010878001e007800ae
:1038d8006c00b9008000780000f9210000804000e9
:1038e800c04088009e007800e14088000080fa000f
:1038f800000006000c00fa0064024700000a780085
:103908006600470001087800680047000208780050
:103918006a004700030878006a0047001000780032
:103928000000e00002003a00e0ff2f0043003700eb
:103938000000eb00000f7800010037001e0fe800c0
:103948001e0078006c00b900000078008080e80054
:1039580000f921000080400010007800e30f5000bb
:10396800030032001e007800e90f5000f3ff340016
:103978001e007800ea0f500002003a000080eb00b9
:103988002e0037006800470010007800d8fe0700b6
:10399800800078000e80e800010878000e80e800ba
:1039a800100078000000e00002003d00d0ff2f006a
:1039b800220037000e80e800100078008040880060
:1039c8006400470090007800a14088006600470026
:1039d80090007800b14088008b020700904080007a
:1039e800000178001e0078006c00b90080007800a3
:1039f80000f9210000804000020878001e007800cd
:103a08006c00b9008000780020f921000080400097
:103a180021002000010878006a00470010017800a2
:103a28001e0078006c00b9008000780040f9210081
:103a380000804000020878001e0078000080fa002c
:103a4800000006000000fa00881f7800a00020008f
:103a5800e0408800e840800040062000a4fe0700ff
:103a6800000178006c40b9008000780000f921005e
:103a78000080400002087800e04080006c00b90037
:103a88008000780020f92100008040008000eb00d1
:103a980001087800e04080006c00b90080007800e0
:103aa80040f92100008040008000eb000108780008
:103ab800f0008000d0408800e04080006c00b90031
:103ac8008000780000f92100008040001000780094
:103ad800f0008800e04080006c00b90080007800a9
:103ae80000f9210000804000c04088009460a800d0
:103af80005e1a800ffff37000400fa00000f780076
:103b08000e80e800010878009e0078000e80e8002a
:103b1800900878001e0078008000eb0076004000d6
:103b2800010878001e0078008000eb007800400053
:103b3800010878001e0078008000eb007a00400041
:103b4800010878000080fa00000006000c00fa0066
:103b5800ea00470080087800e80047006a0047004c
:103b6800100078007c00400017020700680047003a
:103b780010007800e10f500008003a00110880009a
:103b88000008800000805000e50f50000300360058
:103b980087a0a8000000000000000000680047009f
:103ba80010007800e10f5000ebff32006a00470078
:103bb80010007800100078000000e0000c003400cd
:103bc8006a00470010007800100078008000e900c3
:103bd8006a00470010007800010878006a00470072
:103be800100078007c004000020207009a003700ad
:103bf8006a00470010007800760040001001780045
:103c0800e34080006a004700900078000200e80066
:103c18000000400000804000030878006a00470068
:103c28001000780076004000100078008000e8005e
:103c3800a000200000017800110009008200d800cf
:103c48008000fd00800078006a00470010007800be
:103c580076004000010878006a00470010007800ec
:103c68007a004000100078008000e8006a004700f1
:103c7800100078007a004000010878006a004700c8
:103c8800100078007a00400010007800e10f500022
:103c9800610034006a004700100078007a00400094
:103ca80010007800000fe900580037006a0047004c
:103cb8001000780078004000100078009e00400056
:103cc800a000200000017800110009008200d8003f
:103cd8000e80e800010878006a00470010007800ac
:103ce80078004000100078001e0040008000e900c5
:103cf800a000200000017800110009008200d8000f
:103d080064004700010878006a00470090007800c6
:103d18000e80e800100078000000e8000000400075
:103d280000804000100078006c00b90000007800a6
:103d3800e400400000f921000080400010017800f4
:103d48006a0047009000780064004700100078007f
:103d58000000e800000040000080400010007800eb
:103d68006c00b90000007800e400400000f9210070
:103d78000080400010007800800f510022003400bd
:103d88006a004700100178006400470010007800be
:103d98000000e80080004000660047008100410004
:103da800110878006a004700900078000e80e8004b
:103db800100078000000e80000004000008040008b
:103dc800100178006a0047009000780064004700fe
:103dd800100078000000e80000004000008040006b
:103de800020878006a004700900078000e80e8001a
:103df800100078000000e80000004000008040004b
:103e0800e6004700110878001e0fe9001e00780040
:103e18000000e000a5ff3c009460a900e04080009d
:103e28006c00b9008000780020f921000080400073
:103e380011002000010878006a004700100078008f
:103e48007c0040006b0107009460a80087a0a800d0
:103e580000000000000000000080fa0000000600da
:103e68000400fa008e80e800800878008e00780050
:103e78000e80e800100078007c0040005201070026
:103e88001e007800e10f500008003a001108800079
:103e98000008800000805000e50f50000300360045
:103ea80087a0a80000000000000000001e007800a5
:103eb800e10f5000edff32000e80e800100078009e
:103ec800100078000000e0000c0034000e80e800cc
:103ed80010007800100078008000e8000e80e800ec
:103ee80010007800010878000e80e80010007800c3
:103ef8007c0040003f0107003e0037000e80e800cc
:103f0800100078007a004000100078000000e000ff
:103f18000c003a000e80e8001000780010007800cd
:103f28008000e8000e80e8001000780001087800a2
:103f38000e80e800100078007c0040002d0107008a
:103f48002c0037000e80e800100078007800400050
:103f5800100178000e80e800900078000200e80068
:103f68000000400000804000100078006c00b9009c
:103f78008000780020f92100008040002100200006
:103f8800010878000e80e8001000780078004000f2
:103f9800100078008000e800a000200000017800f0
:103fa800110009008200d8008000fd008000780020
:103fb8000e80e800100078007800400001087800c2
:103fc8000e80e800100078007a00400010007800a9
:103fd8008000e9000e80e800100078007a004000b8
:103fe800010878000e80e800100078007c0040008e
:103ff800000107000080fa00000006000400fa0033
:10400800000f78000e80e800010878001e00780094
:1040180011002000b8fe07001e0078007e00400056
:104028008e80e800110878001e0078008000eb0000
:104038000002b000010878001e007800a1002000ee
:104048002002b000010878000080fa000000060095
:104058000200fa00000f78001e007800bbfe07007f
:10406800e14080001e0078002002b00001087800be
:104078001e0078007e00400010017800e0408000bb
:104088006c00b90000007800e400400000f921004d
:104098000080400010007800800f510013003400a9
:1040a800e04080006c00b90000007800e4004000a7
:1040b80000f9210000804000900078001e00780080
:1040c8000002b00001087800e14080001e0078007e
:1040d8007e004000100178006c08b900800078006c
:1040e80040f9210000804000020878000080fa00b2
:1040f800000006000200fa00000f78001e00780099
:104108002002b00090007800e0408000808f5000ce
:1041180018003a001e007800a10020002002b0001c
:10412800010878001e0078000002b0001000780036
:104138000000e0000d003400e14080001e0078001f
:104148000002b000100178006c08b9008000780007
:1041580040f9210000804000020878001e00780025
:104168008000eb000002b000010878001e00780013
:104178003bff07000080fa00000006000000fa007c
:1041880040408000514080000080fa000000060096
:104198000a00fa00660147000089be00404080001e
:1041a80051408000660147001201be00001f510007
:1041b80001975900100280004500de00674060004a
:1041c8008080fb006400470001087800110280002d
:1041d800000e20000100700010028800e0408000fe
:1041e8006c00b9008000780060f921000080400070
:1041f8003e1878002e107800e04080006c00b9006e
:1042080080007800a0f92100008040001100200003
:1042180001087800e04080006c00b9008000780058
:1042280020f92100008040001100200001087800da
:104238006400470010007800004078006740600084
:104248000080fb00670060004500dd00120280006e
:10425800f1f12f0081006100010070001002880058
:1042680087a0a80000000000000000000080fa00fd
:10427800000006000000fa00e04080006c00b90071
:104288008000780020f92100008040001100200003
:104298000108780087a0a8000000000000000000c6
:1042a8000080fa00000006000200fa00000f780003
:1042b8001e0078006c00b900000078008080e800db
:1042c80000f921000080400010007800e10f500044
:1042d80002003a0010002000010037000000eb0047
:1042e8000080fa00000006000200fa00000f7800c3
:1042f8001e0078006c00b9008000780020f92100c9
:104308000080400021002000010878000080fa00a9
:10431800000006000200fa00c4fc0700000f780045
:104328004001220009fe07009e1f7800207c29001a
:10433800801f780010f40700e4875700400122002e
:10434800c7fe0700f6ff37000400fa0048fb070025
:1043580074fb070017fb0700a2702d0033c223006f
:1043680000c0220071c124009afc07008000780078
:104378000e80e800010878001100200040012200aa
:10438800ddfd07000000eb00000f78000600370095
:10439800e11822000000200013002000c2122000b3
:1043a80054fd07001e0fe8001e007800e10f5000c2
:1043b800f7ff3400a3fd07000040fe000000eb00fb
:1043c8000080fa0000000600821f78001008a40090
:1043d800040032001200200082087800fa2104004c
:1043e8000000000002002000820878004f017800d9
:1043f80000000600811f7800900078006e88600039
:10440800cf007800000006006f40880070408800e8
:104418008f408000b0408000801f7800a04080005e
:10442800f007b200801f7800704080004200f8005a
:10443800801f7800811f7800829fbe00849fbe0085
:10444800869fbe00889fbe008a9fbe008c9fbe00cc
:104458008e1f78003600f8003200f8002200f800bd
:104468002400f8002600f8002800f8002a00f800c8
:104478002c00f8003800f8003a00f8003c00f8007a
:104488003e00f8004000f8004400f8003400f8004e
:104498009f4088006f408000000006008460a900eb
:1044a8004200f800801f7800811f7800829fbe00bc
:1044b800849fbe00869fbe00889fbe008a9fbe0064
:1044c8008c9fbe008e1f78003600f8003200f8007e
:1044d8002200f8002400f8002600f8002800f80060
:1044e8002a00f8002c00f8003800f8003a00f8001c
:1044f8003c00f8003e00f8004000f8004400f800d6
:104508003400f800c04080000f087800221b020029
:1045180000000000a21b020000000000c040800054
:10452800900778003400f9004400f9004000f900d1
:104538003e00f9003c00f9003a00f9003800f900a3
:104548002c00f9002a00f9002800f9002600f900db
:104558002400f9002200f9003200f9003600f900c1
:104568004f0778004f06be004f05be004f04be003f
:104578004f03be004f02be004f01be004f00be00f9
:104588004200f9000040060087a0a9004200f80098
:10459800801f7800811f7800829fbe00849fbe0024
:1045a800869fbe00889fbe008a9fbe008c9fbe006b
:1045b8008e1f78003600f8003200f8002200f8005c
:1045c8002400f8002600f8002800f8002a00f80067
:1045d8002c00f8003800f8003a00f8003c00f80019
:1045e8003e00f8004000f8004400f8003400f800ed
:1045f800c04080000f087800a21b020000000000e5
:10460800c0408000900778003400f9004400f900a9
:104618004000f9003e00f9003c00f9003a00f900ba
:104628003800f9002c00f9002a00f9002800f900e8
:104638002600f9002400f9002200f9003200f900f0
:104648003600f9004f0778004f06be004f05be0040
:104658004f04be004f03be004f02be004f01be0014
:0c4668004f00be004200f90000400600b8
:020000040000fa
:1046740020080000121800000000000000080000dc
:104684001e000000000000001e08000002000000e0
:104694000000000032200000420000000200000080
:1046a40036203800203820000100030000000000fc
:1046b40000000000000000000000060012000000de
:1046c4000000000000dc0d00da090000000000001a
:1046d40000000000000000000000000000000000d6
:1046e40000000000000000000000000000000000c6
:1046f4000000000000000000742000001c00000006
:1047040002000000286e69006c29000068076c0034
:10471400094c83006a907400a07ac000008068008d
:10472400880084006c82000081000000902000005a
:1047340002000000000000009220000002000000bf
:0c47440002000000010000000000000066
:020000040000fa
:10475000f03fb1000180b10006003500ee03090012
:1047600000000000403fb1000180b100fbff3d00b0
:104770001000b000203fb0000200350000800900aa
:0847800000000000000006002b
:020000040000fa
:0200000401f009
:04000000ffffff00ff
:020000040000fa
:0200000401f009
:04000400ffffff00fb
:020000040000fa
:0200000401f009
:04000800ffffff00f7
:020000040000fa
:0200000401f009
:04000c0002000000ee
:020000040000fa
:0200000401f009
:0400100045000000a7
:020000040000fa
:0200000401f009
:040014005f00000089
:020000040000fa
:0200000401f009
:04001800f0000000f4
:020000040000fa
:0200000401f009
:04001c00deff000003
:00000001FF
